:020000040800F2
:10000000280700209D010008D52D0008AD2100081B
:10001000D12D000885040008D53D0008000000002F
:10002000000000000000000000000000DD330008B8
:100030007D0500080000000025310008DF330008BE
:10004000B7010008B7010008B7010008B7010008B0
:10005000B7010008B7010008B7010008B7010008A0
:100060007F050008B7010008B70100085105000826
:10007000B7010008B7010008B7010008B701000880
:10008000B7010008B7010008B7010008B701000870
:10009000B7010008B7010008B7010008B701000860
:1000A000B7010008B7010008B7010008B701000850
:1000B000B70100080000000000000000B7010008C0
:1000C000B7010008B7010008B701000800000000F0
:1000D000B7010008B7010008B7010008C53D0008D6
:1000E000B7010008B7010008B701000800000000D0
:1000F0000000000000000000000000000000000000
:10010000000000000000000000000000B70100082F
:100110000000000000000000B7010008000000001F
:1001200000000000000000000000000000000000CF
:1001300000000000000000000000000000000000BF
:10014000B7010008B701000800000000000000002F
:10015000000000000000000000000000000000009F
:10016000B7010008B7010008B7010008B70100088F
:10017000B7010008000000000000000000000000BF
:1001800000000000B7010008DFF80CD000F0C2F852
:1001900000480047D53F0008280700200648804750
:1001A00006480047FEE7FEE7FEE7FEE7FEE7FEE75C
:1001B000FEE7FEE7FEE7FEE75D350008890100087F
:1001C0002DE9F05F0546002092469B46884606468C
:1001D000814640241BE0284641464746224600F01F
:1001E00051F853465A46C01A914110D31146184649
:1001F000224600F07FF82D1A67EB01084F46224691
:100200000120002100F076F817EB00094E41201E76
:10021000A4F10104DFDC484631462A464346BDE8E6
:10022000F09F2DE9F0410024061B254671F10006E0
:1002300005DA01240027D0EB070067EB0101161E49
:1002400073F1000605DA0027D2EB0702012567EB00
:100250000303FFF7B5FF86460E4617469C46AC42A1
:1002600004D00025D0EB050E65EB010624B100207B
:10027000D2EB000760EB030C704631463A4663460A
:10028000BDE8F081202A04DB203A21FA02F00021A7
:10029000704721FA02F3D040C2F120029140084396
:1002A00019467047D2B201E000F8012B491EFBD27B
:1002B00070470022F6E710B513460A460446194671
:1002C000FFF7F0FF204610BD30B50B460146002079
:1002D0002022012409E021FA02F59D4205D303FA08
:1002E00002F5491B04FA02F52844151EA2F1010289
:1002F000F1DC30BD202A04DB203A00FA02F10020B4
:1003000070479140C2F1200320FA03F31943904053
:1003100070470000064C074D06E0E06840F001031E
:1003200094E8070098471034AC42F6D3FFF730FF4B
:1003300000410008204100082DE9F04381B000236E
:1003400090468E46B3EB910F1FD04FEA9E012EF0E0
:10035000030C002306464D42002100BFD6E900747D
:10036000D6E902291036DB1941EBE7711B1941EB85
:10037000E4719B1841EBE27113EB090341EBE97166
:100380000135EBD100EB8C0000E000211EF00306EC
:1003900007D0764250F8042B9B1841EBE2710136EE
:1003A000F8D1184672460023FFF73BFFC8F800005B
:1003B00001B0BDE8F083000010B504202B490968A6
:1003C0000140814201D1012100E0002100294CD0EF
:1003D00004202649086000BF00BF24490839096885
:1003E0008143224A083A116000BF00BF1F491439F7
:1003F000096881431D4A143A116000BF00F094F867
:1004000000201B4948620F2302221A491A4801F0B2
:1004100025F850BB174840781649097840EA012072
:100420001649174A128841F8220015480088401CD6
:100430001349088008460088202801D10020088040
:1004400004200A49083909680143084A083A11603A
:1004500000BF00BF0549143909680143034A143A33
:10046000116000BF322000F065F810BD1404014097
:1004700000400140000000202C0100203800002036
:100480000800002000BFFEE710B58AB004460F49FF
:1004900020680968884216D1012005900020069046
:1004A000012007900020009001900290039004909A
:1004B000012008900E2009906946204600F011F9AD
:1004C000204600F0A5FA0AB010BD0000B8000020D8
:1004D0002DE9F04186B006460C46154601274FF03F
:1004E00000080095082004900020029003903046F8
:1004F00000F07CF900F0FF0804E0304600F076F9E7
:1005000000F0FF08B8F1000FF7D002232246694639
:10051000304600F03BF807461FB1022006B0BDE8A8
:10052000F0810020FAE7000000200149886370474D
:1005300000400140014988637047000000400140CD
:100540004FF480500149886100BF704700040048A3
:1005500010B5024800F0E1FA10BD0000DC010020F7
:10056000054A0168891A1422B1FBF2F1890001647D
:1005700001490839C163704708000240704710B54F
:10058000FFF71AFF10BD72B600BFFEE7F0B50446D4
:100590000D461E4694F8207020688368A86800B94C
:1005A00000E000BF012F01D0022F7CD103F080605A
:1005B00030B903F0006018B903F08050002873D000
:1005C000C3F30161022905D9606A40F4000060624A
:1005D0000120F0BD012088403060A86860B9B5F8FE
:1005E00000C0E86840EA4C5C206800F5C07000EB91
:1005F0000110C0F800C00FE0D5E901C040EACC000E
:10060000D5F80CC040EA0C00D4F800C00CF5C07C52
:100610000CEB011CCCF80000D5F810C0206800F5E8
:10062000C07000EB0110C0F804C0287D01280ED175
:10063000206800F5C07000EB0110406840F4807C39
:10064000206800F5C07000EB0110C0F804C0D0793C
:10065000000692F806C040EA0C4092F805C040EA55
:100660000C2C10794CEA000C206800F5C07000EBEF
:100670000110C0F80CC0D078000692F802C040EA21
:100680000C4092F801C040EA0C2092F800C040EA09
:100690000C00D4F800C00CF5C07C0CEB011CCCF8AD
:1006A0000800206801E016E00FE000F5C07000EBE4
:1006B0000110006840F0010C206800F5C07000EBEC
:1006C0000110C0F800C0002083E7606A40F4001009
:1006D000606201207DE7606A40F480206062012052
:1006E00077E7F0B504460A46216894F82050012DBA
:1006F00001D0022D74D1D1F8000240F00100C1F800
:100700000002107D00F01F06012000FA06F3D1F868
:100710001C029843C1F81C02D069C8B9D1F80C0278
:100720009843C1F80C02908880B2968940EA064648
:1007300001F51070576940F83760108880B216894B
:1007400040EA064601F51070576900EBC7004660A5
:10075000D069012819D1D1F80C021843C1F80C0254
:10076000908880B2168840EA064601F510705769F5
:1007700040F83760908980B2168940EA064601F554
:100780001070576900EBC7004660906928B9D1F82E
:1007900004029843C1F8040204E0D1F804021843AB
:1007A000C1F80402106928B9D1F814029843C1F8BD
:1007B000140204E0D1F814021843C1F81402106ABC
:1007C000012804D1D1F81C021843C1F81C02D1F849
:1007D000000220F00100C1F800020020F0BDFFE798
:1007E000606A40F4802060620120F7E70146002043
:1007F00091F82020012A01D0022A11D10B689B68B0
:1008000003F0806303B1401C0B689B6803F0006336
:1008100003B1401C0B689B6803F0805303B1401C7C
:10082000704770B504460CB9012070BD94F82000E3
:1008300010B9204600F0B0F82068006840F00100D0
:100840002168086000F0F4FA05460DE000F0F0FAC7
:10085000401B0A2808D9606A40F400306062052015
:1008600084F820000120E0E72068406800F00100E3
:100870000028EBD02068006820F0020021680860A2
:1008800000F0D6FA05460DE000F0D2FA401B0A2827
:1008900008D9606A40F400306062052084F82000C6
:1008A0000120C2E72068406800F002000028EBD178
:1008B000207E012806D12068006840F08000216871
:1008C000086005E02068006820F08000216808606A
:1008D000607E012806D12068006840F04000216851
:1008E000086005E02068006820F04000216808608A
:1008F000A07E012806D12068006840F02000216811
:10090000086005E02068006820F020002168086089
:10091000E07E012806D12068006820F010002168E0
:10092000086005E02068006840F010002168086059
:10093000207F012806D12068006840F00800216867
:10094000086005E02068006820F008002168086061
:10095000607F012806D12068006840F0040021680B
:10096000086005E02068006820F004002168086045
:10097000D4E90201084321690843616908436168B9
:10098000491E08432168C86100206062012084F884
:100990002000002049E7000010B586B0044614216D
:1009A00001A8FFF786FC18492068884229D100BFBA
:1009B0001648C06940F000701449C8610846C06913
:1009C00000F00070009000BF00BF00BF0846406903
:1009D00040F4003048610846406900F4003000905F
:1009E00000BF00BF4FF4C0500190022002900120D0
:1009F0000390032004900920059001A9C00600F08F
:100A00003FF906B010BD0000006400400010024035
:100A100070B5044694F82000012822D1022084F801
:100A200020002068006820F001002168086000F0C4
:100A3000FFF905460DE000F0FBF9401B0A2808D934
:100A4000606A40F400306062052084F820000120D4
:100A500070BD2068406800F001000028EBD16062A2
:100A6000F6E7606A40F4002060620120F0E701468A
:100A700091F82100022808D00420886300BF0020DC
:100A800081F8200000BF012070470868006820F04E
:100A90000E000A6810600868006820F001000A680B
:100AA000106091F8402001209040CA6B50600120F6
:100AB00081F8210000BF002081F8200000BF00BFA6
:100AC000E2E770B50446002594F82100022803D01F
:100AD0000420A06301251EE02068006820F00E00BD
:100AE000216808602068006820F001002168086023
:100AF00094F8401001208840E16B4860012084F8A0
:100B0000210000BF002084F8200000BF606B10B1FE
:100B10002046616B8847284670BD70B50446E06B7F
:100B200005682068066894F8401004208840284032
:100B3000D0B106F00400B8B12068006800F02000D1
:100B400028B92068006820F004002168086094F843
:100B5000401004208840E16B4860E06A00284ED0D5
:100B60002046E16A88474AE094F840100220884015
:100B7000284008B306F00200F0B12068006800F0D9
:100B8000200040B92068006820F00A002168086051
:100B9000012084F8210094F8401002208840E16B85
:100BA000486000BF002084F8200000BFA06A30B376
:100BB0002046A16A884722E094F840100820884027
:100BC0002840E0B106F00800C8B12068006820F0B5
:100BD0000E002168086094F8401001208840E16B05
:100BE00048600120A06384F8210000BF002084F841
:100BF000200000BF206B10B12046216B884770BDDC
:100C000070B5044600250CB9012070BD022084F89F
:100C100021002068056843F6F0708543D4E901019E
:100C20000843E16808432169084361690843A169F1
:100C30000843E16908430543206805602046FFF743
:100C40008FFC0020A063012084F82100002084F89C
:100C5000200000BFD9E7000070B5044600F0E8F8B6
:100C600006462546681C10B104480078054400BFBC
:100C700000F0DEF8801BA842FAD370BD2C000020E3
:100C800078B503460A460021BFE001268E4015686C
:100C900005EA0604002C73D0157905F00305012D33
:100CA00004D0157905F00305022D13D198684E0084
:100CB0000325B540A8434E00D568B5402843986049
:100CC000586801258D40A8431579C5F300158D405E
:100CD00028435860157905F00305032D09D0D8681D
:100CE0004E000325B540A8434E009568B540284303
:100CF000D860157905F00305022D13D1CE0803F154
:100D0000200555F826004D07EE0E0F25B540A843E7
:100D10004E07F60E1569B5402843CE0803F12005AD
:100D200045F8260018684E000325B540A8431579FC
:100D300005F003054E00B54028431860556805F4DA
:100D40004035002D60D000BF334DAD6945F0010541
:100D5000314EB5613546AD6905F00105009500BF1E
:100D600000BF4FEAB6358E0855F826008D072E0FC6
:100D70000F25B540A843B3F1904F02D1002510E0F4
:100D800042E0264DAB4201D101250AE0244DAB42A1
:100D900001D1022505E0234DAB4201D1032500E03E
:100DA00005258E07360FB54028431F4D8E0845F8A0
:100DB00026001E4D2868A043556805F4803505B10E
:100DC00020431A4D28602D1D2868A043556805F45E
:100DD000003505B12043154D2D1D28602D1D2868B7
:100DE000A043556805F4801505B120430F4D083523
:100DF00028602D1D2868A043556805F4001505B12D
:100E000020430A4D0C352860491C1568CD40002D43
:100E10007FF43BAF78BD00000010024000040048A2
:100E200000080048000C0048080001400004014090
:100E3000014800687047000024000020024692F834
:100E4000410020282DD100BF92F84000012801D197
:100E500002207047012082F8400000BF242082F861
:100E600041001068006820F00100136818601068E5
:100E7000006820F480501368186010680068084308
:100E8000136818601068006840F00100136818606B
:100E9000202082F8410000BF002082F8400000BFFF
:100EA000D7E70220D5E710B502460B4692F841007D
:100EB00020282AD100BF92F84000012801D1022049
:100EC00010BD012082F8400000BF242082F84100BC
:100ED0001068006820F00100146820601068016844
:100EE00021F4706141EA0321106801601068006814
:100EF00040F0010014682060202082F8410000BF0B
:100F0000002082F8400000BFDAE70220D8E70000A6
:100F100010B504460CB9012010BD94F8410028B961
:100F2000002084F84000204600F054F8242084F883
:100F300041002068006820F00100216808606068B6
:100F400020F07060216808612068806820F400400B
:100F500021688860E068012805D1A06840F400405D
:100F60002168886004E0A06840F40440216888603B
:100F7000E068022802D18002216848602068406849
:100F800013490843216848602068C06820F4004085
:100F90002168C860D4E904010843A16940EA01203E
:100FA0002168C860D4E90701084321680860206807
:100FB000006840F001002168086000206064202083
:100FC00084F841000020206384F8420000BFA3E7BA
:100FD0000080000210B586B00446142101A8FFF776
:100FE00068F918492068884229D100BF164840692D
:100FF00040F48020144948610846406900F480208C
:10100000009000BF00BFC02001901220029001207C
:101010000390032004900420059001A90B48FFF7DA
:101020002FFE00BF0848C06940F400100649C8619F
:101030000846C06900F40010009000BF00BF06B071
:1010400010BD0000005400400010024000040048A1
:10105000034800680349097808440149086070475B
:10106000240000202C00002010B50848006840F043
:10107000100006490860032000F09EF8002000F0F0
:1010800007F800F02BF8002010BD000000200240FF
:1010900070B504460E4800784FF47A71B1FBF0F059
:1010A0000C490968B1FBF0F5284600F008FC08B1CE
:1010B000012070BD102C07D200222146501E00F0E6
:1010C0003DF80548046001E00120F2E70020F0E768
:1010D0002C000020300000202800002008B500BFB0
:1010E0000D48806940F001000B498861084680691D
:1010F00000F00100009000BF00BF00BF0846C069BB
:1011000040F08050C8610846C06900F080500090EF
:1011100000BF00BF08BD00000010024001460846A5
:10112000002809DB00F01F0301229A4043099B00BD
:1011300003F1E023C3F8002100BF70472DE9F05F01
:1011400080460D461646002702F056FE07463946F1
:101150002A46334601F00700C0F1070ABAF1040F2E
:1011600002D94FF0040A01E0C0F1070AD14600F1AC
:10117000040ABAF1070F02D24FF0000A01E0A0F111
:10118000030AD4464FF0010A0AFA09FAAAF1010A41
:101190000AEA020A0AFA0CFA4FF0010B0BFA0CFBEE
:1011A000ABF1010B0BEA030B4AEA0B042146404664
:1011B00002F02AFEBDE8F09F00BF00F00702064BD8
:1011C00019684FF6FF031940044B0B4343EA022111
:1011D000014B196000BF70470CED00E00000FA05FC
:1011E00001480068704700003000002000B5FFF79C
:1011F000F7FF0749496801F4E0614FF4E06292FAB1
:10120000A2F2B2FA82F2D140024A515CC84000BD5B
:1012100000100240F840000800B5FFF7E1FF074961
:10122000496801F460514FF4605292FAA2F2B2FAA6
:1012300082F2D140024A515CC84000BD0010024019
:10124000F84000082DE9F041002400250027002681
:10125000A0461F48446804F00C0078B3042802D06C
:1012600008282CD102E0DFF86C802CE004F4701028
:101270004FF4701191FAA1F1B1FA81F1C840164909
:101280000E5C1348C06A00F00F000F2191FAA1F123
:10129000B1FA81F1C84011490D5C04F4803040B1CD
:1012A0002A4600230B481946FEF78AFFA0FB067169
:1012B00002E00B48A0FB0671B84604E000E000BF66
:1012C000DFF8108000BF00BF4046BDE8F08100009D
:1012D0000010024000127A00C8400008D840000800
:1012E00000093D0070B504460CB9012070BD606A6C
:1012F00038B96068B0F5827F00D105E00021E16176
:1013000002E00021216161610021A16294F85D0089
:1013100028B9002084F85C00204600F061F8022023
:1013200084F85D002068006820F0400021680860B3
:10133000E068B0F5E06F01D9002501E04FF4805579
:10134000E068B0F5706F05D0E068B0F5E06F01D0EF
:101350000021A162A08800F48270218901F4044177
:101360000843217C01F002010843217D01F00101C5
:101370000843218B01F400710843217F01F03801FB
:1013800008432021095D01F080010843218D01F40B
:1013900000510843216808600421A06901EA104057
:1013A00094F8241001F01001084394F8341001F06F
:1013B00008010843A18901F47061084305F48051D4
:1013C0000843216848602068C06920F400602168F3
:1013D000C86100202066012084F85D00002085E7B8
:1013E00010B586B00446142101A8FEF762FF184923
:1013F0002068884229D100BF1648C06940F4804067
:101400001449C8610846C06900F48040009000BFDC
:1014100000BF00BF0846406940F48020486108468C
:10142000406900F48020009000BF00BF4FF4C0402E
:1014300001900220029001200390032004900520D7
:10144000059001A90448FFF71BFC06B010BD000081
:101450000038004000100240000400482DE9F84325
:101460000446884616461D464FF000096068B0F5F0
:10147000827F0DD1A06858B9042084F85D003346FE
:10148000424641462046009500F0BBF8BDE8F8838F
:1014900000BF94F85C00012801D10220F6E701208A
:1014A00084F85C0000BFFFF7C3FC074694F85D00BA
:1014B000012802D04FF0020999E0B8F1000F00D0E6
:1014C00016B94FF0010992E0042084F85D00002075
:1014D0002066C4F84080A4F84460A4F84660A06385
:1014E000A087E087E0642065E068B0F5E06F06D98A
:1014F0002068406820F480502168486005E020683A
:10150000406840F4805021684860A068B0F5004F02
:101510000BD12068006820F0400021680860206836
:10152000006820F48040216808602068006800F0AE
:101530004000402805D02068006840F04000216845
:101540000860E068B0F5E06F22D81CE02068806891
:1015500000F0010060B12068007B216C0870206CF5
:10156000401C2064B4F84600401EA4F846000AE07F
:10157000FFF75EFCC01BA84201D3681C00B915B977
:101580004FF0030933E0B4F846000028DED121E033
:101590001CE02068806800F0010060B12068C0682D
:1015A000216C0880206C801C2064B4F84600401E2A
:1015B000A4F846000AE0FFF73BFCC01BA84201D399
:1015C000681C00B915B94FF0030910E0B4F84600E3
:1015D0000028DED13A462946204601F0A4FD08B194
:1015E00020202066206E08B14FF0010900BF0120C5
:1015F00084F85D0000BF002084F85C0000BF48460E
:1016000044E72DE9FF5F0446894692461D460E9E3B
:10161000012001900020009000BF94F85C00012898
:1016200003D1022004B0BDE8F09F012084F85C00E3
:1016300000BFFFF7FDFB074694F85D00029060686D
:101640000390A846AB46029801280BD00398B0F54A
:10165000827F04D1A06810B90298042802D0022029
:10166000009022E1B9F1000F03D0BAF1000F00D0D1
:1016700015B90120009018E194F85D00042802D00B
:10168000052084F85D0000202066C4F840A0A4F87E
:101690004650A4F84450C4F83890E587A587E06424
:1016A0002065E068B0F5E06F02D8BBF1010F06D904
:1016B0002068406820F480502168486005E0206878
:1016C000406840F48050216848602068006800F05D
:1016D0004000402805D02068006840F040002168A4
:1016E0000860E068B0F5E06F4ED9606810B1B8F1FD
:1016F000010F09D1A06B00882168C860A06B801C15
:10170000A063E08F401EE08736E02068806800F02C
:101710000200022810D1E08F70B1019801280BD18E
:10172000A06B00882168C860A06B801CA063E08F5C
:10173000401EE087002001902068806800F00100D2
:1017400080B1B4F8460068B12068C068216C088098
:10175000206C801C2064B4F84600401EA4F84600AB
:1017600001200190FFF764FBC01BB04204D3701C42
:1017700010B10320009098E0E08F0028C5D1B4F8A4
:1017800046000028C1D185E0606810B1B8F1010FB2
:1017900017D1E08F01280AD9A06B00882168C860A2
:1017A000A06B801CA063E08F801EE08709E0A06B27
:1017B000007821680873A06B401CA063E08F401E76
:1017C000E08760E02068806800F0020002281ED1F7
:1017D000E08FE0B10198012819D1E08F01280AD9E2
:1017E000A06B00882168C860A06B801CA063E08F9C
:1017F000801EE08709E0A06B007821680873A06B69
:10180000401CA063E08F401EE0870020019020680C
:10181000806800F0010058B3B4F8460040B3B4F853
:101820004600012816D92068C068216C0880206C09
:10183000801C2064B4F84600801EA4F84600B4F86A
:101840004600012812D82068406840F48050216882
:1018500048600BE02068007B216C0870206C401C05
:101860002064B4F84600401EA4F846000120019010
:10187000FFF7DEFAC01BB04201D3701C00B916B9E5
:101880000320009011E0E08F00289BD1B4F84600BF
:10189000002897D13A463146204601F085FC18B120
:1018A000012000902020206600BF012084F85D0008
:1018B00000BF002084F85C0000BF0098B2E670B55D
:1018C00004462546681EB0F1807F01D301200FE059
:1018D000681E4FF0E02148610F214FF0FF3002F009
:1018E00093FA00204FF0E021886107200861002072
:1018F00070BD000030B502460B4600BF92F83C00B8
:10190000012801D1022030BD012082F83C0000BF37
:10191000022082F83D001068416810688468154D07
:101920001068A84203D121F470015868014321F0E6
:10193000700118680143106841600E4D1068A8429C
:1019400007D01068B0F1804F03D00B4D1068A8424B
:1019500005D124F080049868044310688460012055
:1019600082F83D0000BF002082F83C0000BF00BFAD
:10197000C9E70000002C01400040014010B586B0CE
:101980000446142101A8FEF794FC2068B0F1804FB2
:101990001BD100BF0E48406940F400300C4948613B
:1019A0000846406900F40030009000BF00BF0420EA
:1019B00001900220029000200390049001200590E5
:1019C00001A94FF09040FFF75BF906B010BD000091
:1019D000001002402DE9F04104460D46164600274E
:1019E00000BF94F83C00012802D10220BDE8F0813C
:1019F000012084F83C0000BF0C2E51D005DC4EB114
:101A0000042E1ED0082E7AD133E0102E60D0142E72
:101A1000F9D175E02946206801F0ECFD2068806965
:101A200040F00800216888612068806920F0040087
:101A30002168886120688069296908432168886174
:101A400078E02946206801F021FE2068806940F492
:101A50000060216888612068806920F480602168C6
:101A6000886120688069296940EA012021688861CD
:101A700060E02946206801F05BFE2068C06940F004
:101A800008002168C8612068C06920F0040021684E
:101A9000C8612068C069296908432168C86149E0B4
:101AA0002946206801F094FE2068C06940F4006077
:101AB0002168C8612068C06920F480602168C8611D
:101AC0002068C069296940EA01202168C86131E0C5
:101AD0002946206801F0B2FE2068406D40F0080001
:101AE000216848652068406D20F004002168486541
:101AF0002068406D29690843216848651AE017E0AD
:101B00002946206801F0CCFE2068406D40F400605A
:101B1000216848652068406D20F480602168486530
:101B20002068406D296940EA01202168486501E08C
:101B3000012700BF00BF00BF002084F83C0000BFA9
:101B4000384653E710B504460CB9012010BD94F88F
:101B50003D0028B9002084F83C00204600F02AF817
:101B6000022084F83D00211D206801F001FD0120C4
:101B700084F8480000BF84F83E0001213F20015551
:101B80004020015541200155422001554320015577
:101B900000BF00BF012084F84400452001554620C5
:101BA00001554720015500BF012084F83D00002069
:101BB000CCE7000038B504462068B0F1804F2BD147
:101BC00000BF1648C06940F001001449C8610846CA
:101BD000C06900F00100009000BF00BF104811492B
:101BE00008601020486000210E4881608021C1609B
:101BF0008900016149004161002181614FF4005178
:101C0000C161FEF7FDFF08B1FEF7BDFC00BF05494D
:101C1000E1620846446200BF38BD00000010024087
:101C200008000240DC010020704770477047000048
:101C30002DE9F04704462068C569206806682068D9
:101C4000876840F60F0005EA0009B9F1000F0CD1D2
:101C500005F0200048B106F0200030B1606E10B1F0
:101C60002046616E8847BDE8F087B9F1000F7DD04E
:101C700007F0010018B9BD4830400028F7D005F042
:101C8000010058B106F4807040B10120216808625B
:101C9000D4F8800040F00100C4F8800005F0020094
:101CA00058B107F0010040B1022021680862D4F861
:101CB000800040F00400C4F8800005F0040058B132
:101CC00007F0010040B1042021680862D4F88000C8
:101CD00040F00200C4F8800005F0080070B106F082
:101CE000200010B907F0010040B108202168086207
:101CF000D4F8800040F00800C4F8800005F40060CB
:101D000060B106F0806048B14FF40060216808625D
:101D1000D4F8800040F02000C4F88000D4F880009F
:101D200000284BD005F0200038B106F0200020B18B
:101D3000606E10B12046616E8847D4F880A020689C
:101D4000806800F04000402802D00AF0280070B3FC
:101D5000204601F09AFE2068806800F0400040288C
:101D600021D100BF00BF2168083100E027E051E821
:101D7000001F21F040002168083141E80002002ADC
:101D8000F1D100BF206F50B17948216F4863206FB7
:101D9000FEF797FE90B1206F416B88470EE020461A
:101DA000FFF744FF0AE02046FFF740FF06E0FFE7A9
:101DB0002046FFF73BFF0020C4F8800053E7206E69
:101DC00001287DD105F01000002879D006F0100020
:101DD0000028FAD01020216808622068806800F08E
:101DE000400040285AD1206F006840681FFA80F8F0
:101DF000B8F1000F51D0B4F8580040454DDDA4F8BB
:101E00005A80206F806920283ED000BF00BF216823
:101E100051E8001F21F48070226842E80001002987
:101E2000F5D100BF00BF00BF2168083151E8001F95
:101E300021F001002168083141E80002002AF3D1B5
:101E400000BF00BF00BF2168083151E8001F21F02A
:101E500040002168083141E80002002AF3D100BFA8
:101E60002020E0670020206600BF00BF216851E805
:101E7000001F21F01000226842E800010029F5D17E
:101E800000BF206FFEF7F3FDB4F85800B4F85A20F5
:101E9000801A81B22046FFF7C7FEE4E634F8580FF7
:101EA0006188401A1FFA80F86088583CB0B3B8F1D6
:101EB000000F33D000BF00BF216851E8001F00E0D1
:101EC0002DE021F49070226842E800010029F3D14E
:101ED00000BF00BF00BF2168083151E8001F21F09A
:101EE00001002168083141E80002002AF3D100BF57
:101EF0002020E06700202066606600BF00BF2168E8
:101F000051E8001F21F01000226842E8000100297A
:101F1000F5D100BF41462046FFF786FEA3E605F453
:101F2000801050B107F4800038B14FF48010216860
:101F300008622046FFF779FE95E605F0800040B183
:101F400006F0800028B1A06E10B12046A16E88472F
:101F500089E605F0400030B106F0400018B1204697
:101F600001F0C5FD7FE600BF7DE600002001000412
:101F7000733A000810B504460CB9012010BDA069E1
:101F800000B100E000BFA06F28B9002084F8740001
:101F9000204600F029F82420A0672068006820F07F
:101FA000010021680860204601F0B8FD012800D139
:101FB000E4E7606A10B1204601F0A6FC20684068A2
:101FC00020F49040216848602068806820F02A0052
:101FD000216888602068006840F00100216808607E
:101FE000204601F00DFDC9E710B586B00446142166
:101FF00001A8FEF75EF93449206888422BD100BF62
:102000003248806940F480403049886108468069E0
:1020100000F48040009000BF00BF00BF0846406948
:1020200040F4003048610846406900F400300090F8
:1020300000BF00BF4FF4C06001900220029000205A
:102040000390032004900720059001A94FF09040D1
:10205000FEF716FE35E01E492068884231D100BFE8
:102060001A48C06940F480201849C8610846C06910
:1020700000F48020009000BF00BF00BF0846406908
:1020800040F4802048610846406900F480200090B8
:1020900000BF00BF4FF4406001900220029000207A
:1020A0000390032004900720059001A90948FEF73A
:1020B000E7FD002211462720FFF740F82720FFF711
:1020C0002DF806B010BD000000380140001002409D
:1020D00000480040000400482DE9F84F04460E4631
:1020E00017469946A06F20285DD106B117B9012087
:1020F000BDE8F88F00BF94F87400012801D10220D8
:10210000F6E7012084F8740000BF002050342063FB
:102110002120A062FEF78CFE824627806780503C1B
:10212000A068B0F5805F04D1206910B90025B046E1
:1021300002E035464FF0000800BF002084F874002C
:1021400000BF1DE05346002280212046CDF80090BC
:1021500001F0BCFD08B10320CAE745B9B8F800009A
:10216000C0F308002168088508F1020803E0287818
:10217000216808856D1CB4F85200401EA4F8520076
:10218000B4F852000028DDD15346002240212046F9
:10219000CDF8009001F09AFD08B10320A8E72020B7
:1021A000A0670020A4E70220A2E7704700BFFEE777
:1021B00008B5054949690143034A51611146496916
:1021C0000140009100BF08BD0010024002490968AB
:1021D0008143014A116070470404014002490968C3
:1021E0008143014A11607047240401400249096893
:1021F0008143014A116070470004014002490968A7
:102200008143014A11607047200401400249096876
:102210000143014A11607047040401400249096802
:102220000143014A116070472404014002490968D2
:102230000143014A116070470C04014002490968DA
:102240000143014A116070472C04014002490968AA
:102250000143014A116070470004014002490968C6
:102260000143014A11607047200401400249096896
:102270000143014A1160704708040140024909689E
:102280000143014A116070472804014070B50446BB
:102290000025207A002879D0206800284AD0607A6A
:1022A00020B1012809D0022815D10DE02068FFF7E0
:1022B0008DFF2068FFF7CAFF0FE02068FFF796FF49
:1022C0002068FFF7A3FF08E02068FFF7BFFF206842
:1022D000FFF79CFF01E0012500BF00BFA07A48B3D3
:1022E000A07A012804D002280DD003281FD117E0BE
:1022F00020684049096881433E4A116000BF206858
:10230000FFF7B4FF15E020683A49091F09688143C7
:10231000384A121F116000BF2068FFF787FF08E0EE
:102320002068FFF7A3FF2068FFF780FF01E0012589
:1023300000BF00BF6068002859D0607A20B1012832
:1023400009D0022815D10DE06068FFF747FF6068EB
:10235000FFF784FF0FE06068FFF750FF6068FFF74A
:102360005DFF08E06068FFF779FF6068FFF756FFE0
:1023700001E0012500BF00BFA07A58B3A07A012870
:1023800005D0022810D0032822D11AE023E060688B
:102390001849203109688143164A2032116000BF74
:1023A0006068FFF76BFF15E0606812491C3109682F
:1023B0008143104A1C32116000BF6068FFF73EFF86
:1023C00008E06068FFF75AFF6068FFF737FF01E039
:1023D000012500BF0BE02068FFF708FF2068FFF72A
:1023E000F5FE6068FFF70AFF6068FFF7F7FE284612
:1023F00070BD00000C040140F0B502460B461868A1
:1024000090FAA0F0B0FA80F48BE00125A54018689E
:1024100000EA050100297CD05868012802D05868DC
:1024200002281DD19868956891FAA1F6B6FA86F649
:1024300077000326BE40B54391FAA1F6B6FA86F6B8
:10244000760000FA06F63543956000BFDD6818682F
:102450005668864300FB05F73E43566000BF00BF49
:102460001869D56891FAA1F6B6FA86F677000326C0
:10247000BE40B54391FAA1F6B6FA86F6760000FAA8
:1024800006F63543D56000BF5868022831D191FA6D
:10249000A1F0B0FA80F0082814D25869156A91FAB0
:1024A000A1F6B6FA86F6B7000F26BE40B54391FAFC
:1024B000A1F6B6FA86F6B60000FA06F635431562BE
:1024C00000BF16E05869556A0E0A96FAA6F6B6FAE3
:1024D00086F6B7000F26BE40B5430E0A96FAA6F65A
:1024E000B6FA86F6B60000FA06F63543556200BF26
:1024F00000BF5868156891FAA1F6B6FA86F677001B
:102500000326BE40B54391FAA1F6B6FA86F67600E8
:1025100000E005E000FA06F63543156000BF00BF95
:10252000641C1868E04000287FF46FAFF0BD816242
:10253000704730B5036891FAA1F4B4FA84F46500E9
:102540000324AC40A34391FAA1F4B4FA84F46400E8
:1025500002FA04F42343036030BD30B5C36891FA36
:10256000A1F4B4FA84F465000324AC40A34391FAC7
:10257000A1F4B4FA84F4640002FA04F42343C360BF
:1025800030BD000010B5094ACBB252F8232022EA30
:1025900011420B0C93FAA3F3B3FA83F300FA03F39B
:1025A0001A43024BCCB243F8242010BD080001406E
:1025B00001490860704700003000002010B5034654
:1025C0000A460021147B21469068014321F4806073
:1025D000546840EA040121F40060146840EA0401F0
:1025E00021F48050D48940EA040121F40050146998
:1025F00040EA040121F48040546A40EA040121F4D5
:102600000040546A40EA04010E48834204D121F498
:102610007020546940EA04010A4883420ED121F433
:102620007000146A40EA040121F08070946940EA65
:10263000040121F00070D46940EA040159640020CB
:1026400010BD0000002C014010B5024613681F4861
:10265000824202D0B2F1804F04D123F070004C6866
:1026600040EA0403194882420BD0B2F1804F08D0EF
:102670001748824205D01748824202D0164882424B
:1026800004D123F44070CC6840EA040313608868E6
:10269000D06200BF0888906200BF0C48824208D018
:1026A0000B48824205D00B48824202D00A4882423F
:1026B00003D10869106300BF00BF00BF506940F03C
:1026C0000100506100BF002010BD0000002C01403F
:1026D00000400140004401400048014070B50246FE
:1026E000012901D1002420E0042901D101241CE0AA
:1026F000102901D1022418E0402901D1032414E05B
:10270000B1F5807F01D104240FE0B1F5806F01D1D4
:1027100005240AE0B1F5805F01D1062405E0B1F59A
:10272000803F01D1072400E008242346064CE55CE5
:1027300002F1180428190468044DEE5C0425B54024
:10274000AC43046070BD00009B400008A44000083A
:1027500070B50246012901D1002420E0042901D1ED
:1027600001241CE0102901D1022418E0402901D1E4
:10277000032414E0B1F5807F01D104240FE0B1F50A
:10278000806F01D105240AE0B1F5805F01D10624F4
:1027900005E0B1F5803F01D1072400E0082423467D
:1027A000064CE55C02F1180428190468044DEE5C3F
:1027B0000825B5402C43046070BD00009B40000814
:1027C000A44000082DE9F04106460C4615460127B5
:1027D000B4F5805F21D007DC012C0CD0102C10D078
:1027E000B4F5807F2BD112E0B4F5803F1BD0B4F557
:1027F000801F24D11DE02946304600F0EDFA07463F
:102800001EE02946304600F035FB074618E0294611
:10281000304600F081FB074612E02946304600F0C2
:10282000C9FB07460CE02946304600F001FC07468C
:1028300006E02946304600F039FC074600E000BFBC
:1028400000BF3846BDE8F0818163704708B54FF09E
:10285000E0210969009100BF411C01B1401C06E064
:102860004FF0E021096901F4803101B1401E0028D8
:10287000F6D108BD10B50D480D4908600420486028
:1028800000210B488160C1604FF4403101610901B2
:1028900041610021017641768176C17601774177E9
:1028A000FDF7BFFF08B1FDF76EFE10BD00640040EC
:1028B000B800002008B50120094949690143084AC8
:1028C0005161114649690140009100BF00BF0022DB
:1028D00011460B20FEF732FC0B20FEF71FFC08BD53
:1028E000001002402DE9F0418AB0002007900890C6
:1028F0000990182101A8FDF7DCFC4FF40020FFF738
:1029000057FC4FF48000FFF753FC4FF40030FFF703
:102910004FFC4FF48020FFF74BFC4FF460415B48C5
:10292000FFF705FE4FF480515948FFF700FE4FF4C2
:1029300060400190012002900020039004900590D7
:1029400001A95248FFF758FD4FF480500190012033
:10295000029003200390002004900120059001A91B
:102960004B48FFF749FD4FF470010120FFF70AFEC5
:102970004FF070610120FFF705FE0022022144485C
:10298000FFF7EBFD002204214148FFF7E6FD00229E
:1029900002213F48FFF7CDFD002204213C48FFF70C
:1029A000C8FD022007900020089001208DF8240027
:1029B00000208DF8250001208DF8260007A8FFF7DC
:1029C00065FC042007900020089001208DF8240069
:1029D00000208DF8250002208DF8260007A8FFF7BB
:1029E00055FC08212B4B1B68C3F30220002425460D
:1029F0000346C3F1070CBCF1040F02D94FF0040CDD
:102A000001E0C3F1070C674603F1040CBCF1070FAA
:102A100002D24FF0000C01E0A3F1030C66464FF028
:102A2000010C0CFA07FCACF1010C0CEA040C0CFADA
:102A300006FC4FF0010808FA06F8A8F1010808EAB8
:102A400005084CEA080200BF002904DB1007030E4A
:102A50001148435407E01007040E0E480C3001F0F3
:102A60000F031B1FC45400BF0820002809DB00F01F
:102A70001F02012191404209920002F1E022C2F8B6
:102A8000001100BF0AB0BDE8F08100000008004856
:102A9000000400480CED00E000E400E010B516482A
:102AA0001649086001204860002114488160012116
:102AB000C1600021016141618161C1610162FEF774
:102AC00027FA08B1FDF75FFD00210C48FEF7B6F9C3
:102AD00008B1FDF758FD00210848FEF7E4F908B1F8
:102AE000FDF751FD00BF0648006840F4801004491E
:102AF000086000BF10BD000000540040E00000204E
:102B00000000014010B51248124908604FF482706D
:102B100048604FF480610F4881604FF4E061C1600C
:102B20000021016141614FF4007181610821C1619F
:102B300000210162416281620721C16200210163BB
:102B400008214163FEF7CEFB08B1FDF71CFD10BD67
:102B5000003800402C01002000B59FB014211AA8B5
:102B6000FDF7A7FB202112A8FDF7A3FB282108A849
:102B7000FDF79FFB182102A8FDF79BFB4FF4803067
:102B80004C49896901434B4A916111468969014069
:102B9000019100BF00BF0020ADF868001B90B3207A
:102BA0001C9000201D901E901AA94348FFF74CFD71
:102BB00000BF4148006820F080003F49086000BF26
:102BC00010213D48FFF7C4FD6020129000201390B3
:102BD00014901590169017901890199012AA102121
:102BE0003548FFF7EFFD10213348FFF777FD002050
:102BF0003149496821F0700101432F4A516000BFFB
:102C000000BF1046806820F080001146886000BF39
:102C10000020089009900A908DF82C00ADF82E0045
:102C200048140C9000200D90119008A91046FFF751
:102C3000C5FC10202049096A01431F4A116200BFE8
:102C400000BF1146096A0140814201D1012100E023
:102C50000021012901D0FDF796FC00BF164800684D
:102C600040F001001449086000BF00BF0846406CF6
:102C700040F40040486400BF4FF480200D4949698A
:102C800001430C4A5161114649690140019100BF5D
:102C900000BFC01002900220039000200490059015
:102CA00006900120079002A90448FFF7A5FB1FB07A
:102CB00000BD000000100240004001400004004838
:102CC00000B58BB00020089009900A901C2101A843
:102CD000FDF7EFFA4FF08040164908600020486089
:102CE0000021144881605921C16000210161816186
:102CF000FEF728FF08B1FDF746FC002008900A9077
:102D000008A90C48FEF7F6FD08B1FDF73CFC602071
:102D100001900020029003900590082201A9054827
:102D2000FEF758FE08B1FDF72EFC0248FEF726FE1E
:102D30000BB000BD9001002010B50D480D49086092
:102D40004FF4E130486000210A488160C1600161B0
:102D50000C21416100218161C161016200200549AE
:102D600048620846FFF706F908B1FDF70CFC10BDF4
:102D7000003801402002002010B50D480D490860C0
:102D80004FF4E130486000210A488160C160016170
:102D90000C21416100218161C1610162002005496E
:102DA00048620846FFF7E6F808B1FDF7ECFB10BDF6
:102DB00000480040A402002010B5034A2021034827
:102DC000FDF7BAFA10BD0000040000203800002012
:102DD00000BFFEE700BFFEE770B50246106A20F0B4
:102DE00001001062136A5568946924F003041C4EB4
:102DF00004EA06000E6840EA060423F002000E69A9
:102E000040EA060323F001004E6840EA0603154835
:102E1000824208D01448824205D01448824202D02F
:102E20001348824213D123F008004E6940EA86031A
:102E300023F004008E6840EA860325F480708E69D2
:102E400040EA060525F40070CE6940EA4605556063
:102E50009461C868506300BF1362002070BD000019
:102E60008FFFFEFF002C0140004001400044014064
:102E7000004801402DE9F04104460D46206A20F04B
:102E800010002062266AD4F80480A76927F44077EE
:102E90001C483840296840EA012726F020002969AB
:102EA00040EA011626F01000696840EA011616484B
:102EB000844208D01548844205D01548844202D087
:102EC0001448844213D126F08000696940EA8116D3
:102ED00026F04000A96840EA811628F48060A969BC
:102EE00040EA810828F40060E96940EAC108C4F8B2
:102EF0000480A7612046E968FFF7A6FC266200204F
:102F0000BDE8F081FF8FFFFE002C01400040014032
:102F1000004401400048014070B50246106A20F4A8
:102F200080701062136A5568D46924F003041C4E43
:102F300004EA06000E6840EA060423F400700E69F5
:102F400040EA062323F480704E6840EA06231548C1
:102F5000824208D01448824205D01448824202D0EE
:102F60001348824213D123F400604E6940EA86235D
:102F700023F480608E6840EA862325F480508E69B1
:102F800040EA061525F40050CE6940EA4615556022
:102F9000D461C868D06300BF1362002070BD000018
:102FA0008FFFFEFF002C0140004001400044014023
:102FB0000048014070B50246106A20F4805010624B
:102FC000146A5568D36923F44073144818400E6896
:102FD00040EA062324F400500E6940EA063424F443
:102FE00080504E6840EA06340D48824208D00D48B1
:102FF000824205D00C48824202D00C48824204D161
:1030000025F480408E6940EA86155560D361C86812
:10301000106400BF1462002070BD0000FF8FFFFE2F
:10302000002C0140004001400044014000480140A4
:1030300030B50246106A20F480301062136A546D75
:10304000154D04EA05000D6840EA050423F400303C
:103050000D8A40EA054323F480308D8840EA054319
:103060000E48824208D00E48824205D00D48824266
:1030700002D00D48824206D1506820F480308D691C
:1030800040EA052050605465C868956D906500BFA2
:103090001362002030BD00008FFFFEFF002C0140B6
:1030A00000400140004401400048014030B5024664
:1030B000106A20F480101062136A546D1448204086
:1030C0000D6840EA052423F400100D8A40EA0553F8
:1030D00023F480108D8840EA05530E48824208D0C0
:1030E0000D48824205D00D48824202D00C488242EF
:1030F00006D1506820F480208D6940EA8520506018
:103100005465C868D06500BF1362002030BD000060
:10311000FF8FFFFE002C01400040014000440140B1
:10312000004801407047F8B504460E4615466068F1
:10313000B0F5827F0DD1A068B0F5004F03D0A06834
:10314000B0F5806F05D12068006820F0400021684C
:1031500008603346002280212046009500F0D2F816
:1031600028B1206E40F0200020660320F8BD606882
:10317000B0F5827F16D1A068B0F5004F03D0A068EB
:10318000B0F5806F0ED1334600224FF4C061204667
:10319000009500F03BF828B1206E40F0200020663A
:1031A0000320E3E70020E1E7F8B504460E461546A4
:1031B000334600224FF4C0512046009500F026F817
:1031C00028B1206E40F0200020660320F8BD334671
:1031D000002280212046009500F094F828B1206E4E
:1031E00040F0200020660320F0E7334600224FF431
:1031F000C0612046009500F009F828B1206E40F02B
:10320000200020660320E1E70020DFE72DE9FC5FD6
:1032100004460D4616461F46DDF83090002000900B
:10322000FDF706FEA0EB0900A7EB0008FDF700FE86
:103230008246206800F10C0B31480068C0EBC000EA
:1032400000EB8000000D00FB08F0019050E0B5F5A8
:10325000C06F05D126B99BF8000000909DF80000D2
:10326000781C002844D0FDF7E3FDA0EB0A004045A0
:1032700002D2B8F1000F34D12068406820F0E0009D
:10328000216848606068B0F5827F0DD1A068B0F514
:10329000004F03D0A068B0F5806F05D120680068AA
:1032A00020F0400021680860A06AB0F5005F0DD1F1
:1032B00000BF2068006820F4005021680860206882
:1032C000006840F400502168086000BF012084F8C5
:1032D0005D0000BF002084F85C0000BF0320BDE853
:1032E000FC9F019808B94FF000080198401E01901A
:1032F000206880682840B042A9D10020EFE7000094
:10330000300000202DE9F84F04460D4690461E4639
:10331000DDF82890FDF78CFDA0EB0900371AFDF7CA
:1033200087FD82462C480068C0F3CB30784300907C
:1033300045E0701C002842D0FDF77AFDA0EB0A00A2
:10334000B84200D2A7BB2068406820F0E0002168A6
:1033500048606068B0F5827F0DD1A068B0F5004F7D
:1033600003D0A068B0F5806F05D12068006820F018
:10337000400021680860A06AB0F5005F0DD100BF71
:103380002068006820F40050216808602068006808
:1033900040F400502168086000BF012084F85D00FF
:1033A00000BF002084F85C0000BF0320BDE8F88F58
:1033B000FFE7009800B900270098401E00902068A1
:1033C00080682840A84201D1012000E0002040454B
:1033D000AFD10020EAE7000030000020704710B5B0
:1033E000FDF736FE10BD000010B5022058490968EF
:1033F00021F007010143564A116000BF00BF00BF22
:103400005348006800F007000228F8D100BF514877
:10341000006840F480304F49086000BF00BF00BF23
:103420004C480068C0F340400028F8D000BF49482D
:10343000006840F001004749086000BF00BF00BFBE
:1034400044480068C0F340000028F8D010204149EB
:10345000096821F0F80141EAC0013E4A116000BF4D
:1034600000034FF4E011526822F4741200F4803328
:103470000B431A43374B5A601A46D26A60F3030271
:10348000DA6200BF00BF1846006840F0807019463D
:10349000086000BF00BF00BF2E480068C0F3406056
:1034A0000028F8D000202B49496821F0F0010143A1
:1034B000284A516000BF10151146496821F4E061A7
:1034C0000143516000BF00201146496821F460515A
:1034D0000143516000BF02201146496821F00301F9
:1034E0000143516000BF00BF00BF1A48406800F0B0
:1034F0000C000828F8D11848FFF75AF80020FDF70B
:10350000C7FD08B1FDF73FF800201249096B030E13
:1035100003229A40914301430E4A116300BF1004F5
:103520001146096B21EA106120F07F421143094ADC
:10353000116300BF00BF1146096BC30E02159A400C
:10354000914320F07C421143024A116300BF10BD39
:10355000002002400010024000A24A040348006814
:1035600040F47000014908607047000088ED00E0F9
:1035700010B502681B4B984202D0B0F1804F03D1C6
:1035800022F070024B681A43164B98420BD0B0F1F0
:10359000804F08D0144B984205D0144B984202D06B
:1035A000134B984203D122F44072CB681A4322F0A5
:1035B00080034C6943EA040202608B68C3620B68B3
:1035C0008362084B984208D0074B984205D0074BBE
:1035D000984202D0064B984201D10B690363012344
:1035E000436110BD002C01400040014000440140F7
:1035F0000048014030B5056A25F001050562026A00
:10360000436884691C4D2C4024F003040D682C434E
:1036100022F002028D682A43184DA84200D10BE027
:10362000174DA84200D107E0164DA84200D103E093
:10363000154DA84206D100BF22F00802CD682A43EA
:1036400022F004020D4DA84208D00D4DA84205D02D
:103650000C4DA84202D00C4DA84207D123F4807330
:1036600023F400734D692B438D692B4343608461C0
:103670004D684563026230BD8FFFFEFF002C0140A4
:1036800000400140004401400048014030B5056A57
:1036900025F010050562026A436884691F4D2C40BD
:1036A00024F440740D6844EA052422F020028D6859
:1036B00042EA05121A4DA84200D10BE0194DA8426A
:1036C00000D100BF184DA84200D100BF174DA8423D
:1036D00007D106E022F08002CD6842EA051222F00E
:1036E00040020F4DA84208D00E4DA84205D00E4D05
:1036F000A84202D00D4DA84209D123F4806323F4DF
:1037000000634D6943EA85038D6943EA850343609D
:1037100084614D688563026230BD0000FF8FFFFE4B
:10372000002C01400040014000440140004801409D
:1037300030B5056A25F480750562026A4368C4697C
:103740001E4D2C4024F003040D682C4322F400721B
:103750008D6842EA05221A4DA84200D10BE0194DAE
:10376000A84200D100BF184DA84200D100BF174D9C
:10377000A84207D106E022F40062CD6842EA0522A1
:1037800022F480620E4DA84208D00E4DA84205D00A
:103790000D4DA84202D00D4DA84209D123F480530B
:1037A00023F400534D6943EA05138D6943EA051379
:1037B0004360C4614D68C563026230BD8FFFFEFF88
:1037C000002C0140004001400044014000480140FD
:1037D00030B5056A25F480550562036A4468C269FC
:1037E000114D2A4022F440720D6842EA052223F46A
:1037F00000538D6843EA05330C4DA84208D00C4DA8
:10380000A84205D00B4DA84202D00B4DA84204D1CE
:1038100024F480444D6944EA85144460C2614D68D3
:103820000564036230BD0000FF8FFFFE002C0140E5
:1038300000400140004401400048014030B5056AA5
:1038400025F480350562026A4368446D0F4D2C40B3
:103850000D682C4322F400320D8942EA05420C4DDA
:10386000A84208D00B4DA84205D00B4DA84202D06B
:103870000A4DA84204D123F480334D6943EA05235D
:10388000436044654D688565026230BD8FFFFEFF71
:10389000002C01400040014000440140004801402C
:1038A00030B5056A25F480150562026A4368446DE7
:1038B000104D2C400D6844EA052422F400120D89B5
:1038C00042EA05520C4DA84208D00C4DA84205D042
:1038D0000B4DA84202D00B4DA84204D123F4802303
:1038E0004D6943EA8523436044654D68C5650262BE
:1038F00030BD0000FF8FFFFE002C01400040014062
:10390000004401400048014090F8241001F00101FA
:1039100039B10168496821F40031826A11430268B3
:10392000516090F8241001F00201022907D10168CA
:10393000496821F48031C26A11430268516090F8ED
:10394000241001F00401042907D10168496821F419
:103950008021026B11430268516090F8241001F03D
:103960000801082907D10168496821F40041426B28
:1039700011430268516090F8241001F010011029E1
:1039800007D10168896821F48051826B1143026874
:10399000916090F8241001F02001202907D10168DE
:1039A000896821F40051C26B11430268916090F85C
:1039B000241001F04001402913D10168496821F425
:1039C0008011026C114302685160016CB1F5801FD7
:1039D00007D10168496821F4C001426C11430268B3
:1039E000516090F8241001F08001802907D101680E
:1039F000496821F40021826C1143026851607047CC
:103A000038B504460020C4F88000FDF711FA0546D9
:103A10002068006800F0080008280CD16FF07E4094
:103A20002B4600224FF400110090204600F04EF982
:103A300008B1032038BD2068006800F004000428A5
:103A40000CD16FF07E402B4600224FF48001009095
:103A5000204600F03BF908B10320EBE72020A067E7
:103A6000E0670020206600BF84F8740000BF00BF3C
:103A7000E0E770B505466C6A0020A4F85A00A4F887
:103A800052002046FEF7D2F870BD00BF00BF0268AA
:103A900052E8002F22F49071036843E80012002AD4
:103AA000F5D100BF00BF00BF0268083252E8002F06
:103AB00022F001010268083242E80013002BF3D122
:103AC00000BF016E01290CD100BF00BF026852E89F
:103AD000002F22F01001036843E80012002AF5D1FC
:103AE00000BF2021C167002101664166704710B503
:103AF000044600BF00BF216851E8001F21F04000CC
:103B0000226842E800010029F5D100BF2020A0670B
:103B10000020A0662046FEF748FB10BD2DE9F047C7
:103B200004464FF0000A2169A06808436169084310
:103B3000E16940EA0108206800685E49084040EAFF
:103B40000800216808602068406820F44050E1685F
:103B5000084321684860D4F81880206A40EA0808C1
:103B60002068806820F4306040EA0800216888609E
:103B700000BF51492068884216D15048006B00F0C0
:103B8000030030B1012808D0022808D0032808D14A
:103B900001E0002607E0022605E0042603E00826EF
:103BA00001E0102600BF0CE045492068884201D1A1
:103BB000002606E043492068884201D1002600E043
:103BC000102600BFE069B0F5004F3AD1092E17D298
:103BD000DFE806F005090D160F1616161300FDF79F
:103BE00005FB054610E0FDF717FB05460CE0364DDA
:103BF0000AE0FDF727FB054606E04FF4004503E029
:103C000000254FF0010A00BF00BF8DB36800616856
:103C100000EB5100B0FBF1F087B2102F0ED3B7F5D7
:103C2000803F0BD24FF6F07007EA0009C7F342005D
:103C300049EA00092068C0F80C9034E04FF0010A0E
:103C400031E0092E18D2DFE806F005090D170F172D
:103C500017171400FDF7CAFA054611E0FDF7DCFA64
:103C600005460DE0184D0BE0FDF7ECFA054607E0C0
:103C700019E04FF4004503E000254FF0010A00BFB2
:103C800000BF85B1606805EB50006168B0FBF1F0E2
:103C900087B2102F05D3B7F5803F02D22068C760E6
:103CA00001E04FF0010A00206066A0665046BDE8C2
:103CB000F0870000F369FFEF003801400010024078
:103CC000004400400048004000127A002DE9F04115
:103CD00004460D4617469846069E67E0701C00286D
:103CE00064D0FDF7A5F8A0EB0800B04200D836BBC1
:103CF00000BF00BF216851E8001F21F4D070226886
:103D000042E800010029F5D100BF00BF00BF2168D3
:103D1000083151E8001F21F001002168083141E815
:103D20000002002AF3D100BF2020A067E06700BF97
:103D3000002084F8740000BF0320BDE8F0812068F3
:103D4000006800F0040080B32068C069C0F3C020A0
:103D500058B34FF400602168086200BF00BF2168BB
:103D600051E8001F21F4D070226842E800010029C8
:103D7000F5D100BF00BF00BF2168083151E8001F26
:103D800021F001002168083141E80002002AF3D146
:103D900000BF2020A067E067C4F8800000BF0020BB
:103DA00084F8740000BF0320C7E7FFE72068C069FC
:103DB0002840A84201D1012000E00020B8428DD067
:103DC0000020BAE710B50248FDF732FF10BD000031
:103DD000A402002000BFFEE70FB4054B10B503A9F5
:103DE000044A029800F034F810BC5DF814FB00009F
:103DF000B93F00083400002002480068C0F30220E8
:103E0000704700000CED00E010B5002804DB0A0745
:103E1000130E054A135406E00A07140E034A00F075
:103E20000F031B1FD45410BD00E400E018ED00E0A8
:103E300002E008C8121F08C1002AFAD17047704773
:103E4000002001E001C1121F002AFBD170470000D1
:103E50002DE9FF4F89B09B460446002506E0252842
:103E60000BD05A460B999047641C6D1C2078002893
:103E7000F5D10DB02846BDE8F08F0027B8460122E5
:103E8000474900E0074314F8013F203B02FA03F0E2
:103E90000842F7D120782E2819D114F8010F47F0E5
:103EA00004072A280ED06FF02F022078A0F13001ED
:103EB00009290CD808EB880102EB410100EB01084D
:103EC000641CF2E70A98641C50F8048B0A9020786E
:103ED0000028CED0642808D0692806D075281ED0C6
:103EE0005A460B9990476D1C58E00A994FF00A0901
:103EF00001C90A91002802DA40422D2102E0390569
:103F000004D52B218DF82010012103E0F90704D0FE
:103F10002021F7E78A4608AE0DE00021FAE70A996A
:103F20004FF00A0901C90A91F7E74946FCF7CCF9B5
:103F3000303106F8011D0028F7D1ADEB060000F185
:103F40002009780701D44FF00108C84502DDA8EB2D
:103F5000090000E000208046002706E008A85A4635
:103F6000C05D0B9990476D1C7F1C5745F6DB04E044
:103F700030205A460B9990476D1CB8F10001A8F10A
:103F80000108F5DC05E016F8010B5A460B9990473D
:103F90006D1CB9F10001A9F10109F4DC641C65E7AD
:103FA0000928010010B5FCF7CBFA3220FCF7C2FA61
:103FB0001420FEF74BFC10BD13B50C464FF6FF73F3
:103FC000012269460248FEF787F800981CBD0000F0
:103FD000A4020020FDF748F8FFF706FAFEF782FC7E
:103FE000FEF768FCFEF746FCFEF78CFDFEF7A4FE2C
:103FF000FEF754FDFEF7C0FEFEF762FEFEF7ACFDD5
:104000001C48FCF741FAFFF7CDFF1420FEF71EFC19
:104010002FE0FEF7D1FE184890ED000AF8EEC00A36
:10402000164890ED000A164890ED001A01EE200A9D
:10403000BDEEC00A134880ED000A13481149096813
:104040000160232201460B48FCF742FA0F48018821
:104050000088401E00B20D4A108039B90648016838
:104060000BA0FFF7B9FE6420084908800120FCF787
:10407000F3FDCEE7B800002004000020100000206F
:104080000C00002014000020180000202200002056
:1040900025642C00081C3044586C8000000000048B
:1040A00004043C3C00000800000008000800000870
:1040B00000000008000000020406080A0C101400AA
:1040C000010203040506080A02030405060708099D
:1040D0000A0B0C0D0E0F1010010203040506070851
:1040E000090A0B0C0D0E0F1000000000000000006C
:1040F000010203040607080900000000010203048E
:10410000204100080000002038000000303E000878
:104110005841000838000020F0060000403E00082A
:104120000000000000000000000000005EBA893DB1
:1041300033B342C300000000000000000000000094
:10414000B400640000000000100000000100000046
:0841500000127A0000000000DB
:040000050800018965
:00000001FF
